:020000040800F2
:10000000E8040020C10100085F1C00083B1500083F
:100010005D1C000829080008751D0008000000008C
:10002000000000000000000000000000831C000829
:100030002B08000800000000811C0008851C000837
:10004000DB010008DB010008DB010008DB01000820
:10005000DB010008DB010008DB010008DB01000810
:10006000DB010008DB010008DB010008DB01000800
:10007000DB010008DB010008DB010008DB010008F0
:10008000DB010008DB010008DB010008DB010008E0
:10009000DB010008DB010008DB010008DB010008D0
:1000A000DB010008DB010008DB010008DB010008C0
:1000B000DB010008DB010008DB010008DB010008B0
:1000C000DB010008DB010008DB010008DB010008A0
:1000D000DB010008DB010008DB010008DB01000890
:1000E000DB010008DB010008DB010008DB01000880
:1000F000DB010008DB010008DB010008DB01000870
:10010000DB010008DB010008DB010008DB0100085F
:10011000DB010008DB010008DB010008DB0100084F
:10012000DB010008DB010008DB010008DB0100083F
:10013000DB010008DB010008DB010008DB0100082F
:10014000DB010008DB010008DB010008DB0100081F
:10015000DB010008DB010008DB010008DB0100080F
:10016000DB010008DB010008DB010008DB010008FF
:10017000DB010008DB010008DB01000800000000D3
:10018000DB010008DB010008DB010008DB010008DF
:10019000DB010008DB010008DB010008DB010008CF
:1001A000DB010008DB010008DB010008DFF80CD0F0
:1001B00000F028FB0048004719290008E804002047
:1001C0000648804706480047FEE7FEE7FEE7FEE7F1
:1001D000FEE7FEE7FEE7FEE7FEE7FEE7211D00087B
:1001E000AD0100082DE9F05F0546002092469B46D0
:1001F00088460646814640241BE02846414647463D
:10020000224600F0F7F953465A46C01A914110D3DE
:1002100011461846224600F0DEF92D1A67EB010858
:100220004F4622460120002100F0D5F917EB0009C6
:100230004E41201EA4F10104DFDC484631462A4627
:100240004346BDE8F09F2DE9FE4F804681EA03005A
:10025000C00F0C46009021F0004123F00045B8EBA0
:100260000200A94105D24046214690461C460B4655
:10027000024623F00040104347D0270DC7F30A0081
:10028000C3F30A510290401A019040286BDAC3F37D
:10029000130040F4801B0098924620B10023D2EB5B
:1002A000030A63EB0B0B01985946C0F1400250461C
:1002B00000F091F906460D4650465946019A00F065
:1002C000A9F910EB08006141002487EA115284EA81
:1002D000E7731A4340D0009A62B3019A012A4FEAA9
:1002E000075215DC001B61EB02014FF0004202EAED
:1002F0000752CDE90042001C41F5801132462B46E1
:1003000000F0E0F903B0BDE8F08F40462146F9E780
:10031000001B61EB0201001C41F5801300185B41DA
:100320002018A2F5001747EB030140EAD570B61973
:100330006D4111E06D084FEA360645EAC0754FEA97
:100340000752001B61EB0201001C41F580114908B6
:100350004FEA30000019514132462B4603B0BDE848
:10036000F04F00F0A0B90098012240000023D0EB2C
:10037000020263EBE073009821464FEAE074B8EBA9
:10038000000061EB0401E9E783F000435BE781F0E3
:10039000004158E72DE9FE4F81EA030404F00044D0
:1003A00021F0004100944FF0000B23F0004350EA8D
:1003B00001045ED052EA03045BD0C3F30A54C1F3D4
:1003C0000A552C44A4F2F3340194A0FB0254C1F367
:1003D000130141F48011C3F3130343F4801301FBB1
:1003E000024400FB034E840A970A44EA815447EA18
:1003F0008357A4FB076802958D0A05FB07854FEA22
:10040000932C04FB0C542705029D4FEA065847EA3B
:100410001637B5EB08056EEB070C870E920E47EA10
:10042000811742EA8312A7FB0201B6EB0B0164EBD2
:1004300000042B0D43EA0C335E1844EB1C50DA46E3
:100440005146E7FB0201C5F313044FEA0B3343EABD
:1004500014534FEA0432019C43EA0603A4F10C044E
:100460000294009CCDE900B400F02CF903B0BDE883
:10047000F08F00200146F9E72DE9F04D81EA0304F1
:1004800004F0004B21F0004514464FF0000A23F021
:10049000004150EA050220D054EA01021DD0C5F304
:1004A0000A570246C5F31303C1F31300C1F30A56FA
:1004B00040F4801543F48013A7EB0608101BD646C2
:1004C00008F2FD3873EB050002D308F1010801E0E2
:1004D00092185B41B8F1000F03DA00200146BDE835
:1004E000F08D00204FF48011064684460EE0171B65
:1004F00073EB050705D3121B63EB050306434CEAB8
:10050000010C49084FEA300092185B4150EA01079C
:10051000EDD152EA030012D082EA040083EA050119
:10052000084305D0101BAB4106D20122002306E090
:1005300000224FF0004302E06FF0010253101AEB6B
:1005400006004CEB085110EB0A0041EB0B01BDE833
:10055000F04D00F0A8B80EB5C10F80EAE070084475
:10056000CA07002140F233438DE80E000A460B46CD
:1005700000F0A8F803B000BD00F0004230F00040E9
:100580000AD0C10D01F56071C0F3160042EA0151B5
:10059000C20840071143704700200146704701F030
:1005A000004330B421F0004150EA010206D00A0DA8
:1005B000A2F56072C1F31301002A02DC30BC0020F6
:1005C0007047440F44EAC104C100E01830BC00EB9E
:1005D000C25000F031B8202A04DB203A00FA02F1C0
:1005E000002070479140C2F1200320FA03F3194321
:1005F00090407047202A04DB203A21FA02F00021C3
:10060000704721FA02F3D040C2F120029140084322
:1006100019467047202A06DBCB17203A41FA02F030
:1006200043EAE07306E041FA02F3D040C2F120024F
:1006300091400843194670470029A8BF7047401CE5
:10064000490008BF20F00100704710B4B0FA80FCE8
:1006500000FA0CF050EA010404BF10BC704749B125
:10066000CCF1200421FA04F411FA0CF118BF012195
:1006700021430843A3EB0C01CB1D4FEA00614FEA75
:10068000102042BF002010BC704700EBC350104444
:100690000029A4BF10BC7047401C490008BF20F0CF
:1006A000010010BC704710B5141E73F1000408DA85
:1006B000401C41F1000192185B411A4301D120F026
:1006C000010010BD2DE9F04D92469B4611B1B1FAE3
:1006D00081F202E0B0FA80F220329046FFF77BFF11
:1006E00004460F4640EA0A0041EA0B0153465A46C7
:1006F000084313D0114653EA010019D0C8F1400253
:100700005046FFF777FF05460E465046594642468B
:10071000FFF761FF084305D0012004E02046394679
:10072000BDE8F08D0020054346EAE0762C433743D0
:100730000A986305E40AA0EB08000022FD0A44EAD7
:1007400047540A3002D500200146E9E70105101997
:100750006941DDE9084500196941BDE8F04DA2E7AE
:100760002DE9F04D00231A461B1A8A4103DB0020B5
:100770000146BDE8F08DC1F30A52C1F3130141F403
:1007800080154FF0000BD10702D100186D41521EA9
:100790000027044640F2FF11384601EB620A3E464C
:1007A0008046024600204FF48011FFF723FFC21954
:1007B0007141BB1846EB0100B4EB030C75EB000C68
:1007C00004D3E41A65EB000517460E46241908F118
:1007D00001006D4180463428E3DDF91946EB06003F
:1007E000091BA84103D24FF0FF32134601E000225B
:1007F00013461BEB070046EB0A51BDE8F04DFFF72F
:1008000052BF0000064C074D06E0E06840F00103CF
:1008100094E8070098471034AC42F6D3FFF7CAFCBF
:10082000A82C0008C82C0008FEE7704770B50446E5
:1008300000F0FAF80546601C02D004480078044431
:1008400000F0F2F8401BA042FAD370BD7000002007
:100850002DE9F84FDFF890B100224FF001084FF07A
:10086000030A4FF00F090BF1040E00BF0B6808FAE2
:1008700002F42340A3426ED14D68022D01D0122D07
:100880000ED1D50800EB850CDCF820505607F70E8A
:1008900009FA07F6B5430E69BE402E43CCF8206036
:1008A000066855000F790AFA05FC07F0030726EAE7
:1008B0000C06AF40374307604E68012E05D0022E6C
:1008C00003D0112E01D0122E0ED18768CE6827EAF0
:1008D0000C07AE403E4386604668A6430C79C4F3DD
:1008E0000014944034434460C4688E6824EA0C04C5
:1008F000AE402643C6604C68E4006FD53B4C25688B
:1009000045F480452560246822F0030504F4804402
:100910000094374C2E19D6F8084895072F0F09FA7E
:1009200007F5AC43334DA84201D100252EE0324DEE
:10093000A84201D1012529E0304DA84201D102256C
:1009400024E02F4DA84201D103251FE02D4DA842E0
:1009500002D104251AE041E02B4DA84201D1052522
:1009600014E02A4DA84201D106250FE0284DA842E7
:1009700001D107250AE0274DA84201D1082505E04D
:10098000254DA84201D1092500E00A25BD40254397
:10099000C6F80858DBF800405D464E689C43F603F5
:1009A00000D51C432C60DEF8004075464E689C4321
:1009B000B60300D51C432C600B4D08352C684E68DF
:1009C0009C43F60200D51C432C60074D0C352C6867
:1009D0004E689C43B60200D51C432C60521C102A62
:1009E000FFF444AFBDE8F88F003C014044380240BA
:1009F00000300140000002400004024000080240B4
:100A0000000C024000100240001402400018024096
:100A1000001C024000200240002402400AB1816113
:100A200070470904FBE70000014880687047000038
:100A30007000002070B5040004D094F83D0000253B
:100A400010B106E0012070BD84F83C50204600F053
:100A500005FA242084F83D002068016821F0010196
:100A6000016000F075FB33492268B0FBF1F1516081
:100A7000314A6368934206D94FF4967359434FF451
:100A80007A73B1FBF3F12368491C196261689142E2
:100A90000BD84900B0FBF1F2C2F30B02042A01D2D9
:100AA000042019E0B0FBF1F016E0A3689BB301EB62
:100AB000C10202EB0112B0FBF2F242F480421205D5
:100AC00030D04BB301EBC10202EB0111B0FBF1F0EE
:100AD00040F4804040F400402168C861D4E9070137
:100AE000084321680860D4E903100843216888603E
:100AF000D4E9050108432168C8602068016841F015
:100B0000010101602564202084F83D00256384F8FC
:100B10003E50002070BD00E006E001EB4102B0FB5A
:100B2000F2F2CCE70120D7E701EB4101B0FBF1F095
:100B3000D0E7000040420F00A08601002DE9F84FE9
:100B40001F4690468A460446DDF82890FFF76CFF62
:100B5000054694F83D0020286FD1192301226E49E3
:100B60002046009500F0DFFD0028F5D194F83C0008
:100B7000012862D0012084F83C0020680168C90780
:100B800003D1016841F0010101602068016821F48E
:100B900000610160222084F83D00102084F83E00AE
:100BA00000262664C4F8248067855C48E062608D76
:100BB00020852B464A465146204600F0D3FC28B1FA
:100BC000206C84F83C60042841D04DE0208D544FC7
:100BD00068B1012814D002282068016816D041F4B9
:100BE00080610160206841698069009085E020682B
:100BF000416981690091016841F4007101607CE004
:100C00002068016821F480610160F0E721F48061CF
:100C100001602068016841F40061E2E7032849D8D7
:100C200001280BD0022817D04B4600223946204617
:100C3000009500F078FDB8B92AE06AE02A464946F6
:100C4000204600F0E5FD28B1206C20280CD00120C2
:100C5000BDE8F88F206845E04B4600223946204623
:100C6000009500F060FD08B10320F1E720680168FD
:100C700041F40071016020680169606A421C62628F
:100C80000170208D401E2085608D401E6085E1E74B
:100C90002068016821F48061016020680169606A50
:100CA000421C62620170208D401E2085608D401EB6
:100CB0006085D1E72A464946204600F0A9FD002874
:100CC000C2D120680269606A411C61620270208D95
:100CD000401E2085608D401E608520684169C943A3
:100CE00049070AD40169606A421C62620170208D62
:100CF000401E2085608D401E6085208D00288DD18E
:100D0000202084F83D0084F83E6084F83C60002098
:100D10009EE702209CE70000020010000000FFFF99
:100D2000040001002DE9F84F1F4690468A4604460C
:100D3000DDF82890FFF778FE064694F83D0020285D
:100D40007ED11923012243492046009600F0EBFC96
:100D500000287DD194F83C00012879D0012084F846
:100D60003C0020680168C90703D1016841F0010116
:100D700001602068016821F400610160212084F88D
:100D80003D00102084F83E0000252564C4F824802E
:100D900067853148E062608D208533464A4651467A
:100DA000204600F04FFC28B1206C84F83C50042809
:100DB0004CD00DE0206841698069009030E03246F7
:100DC0004946204600F055FD28B1206C042838D053
:100DD0000320BDE8F88F606A411C616221680078D9
:100DE0000861608D401E6085208D401E80B2208588
:100DF00021684A69D24352070BD450B1606A421C41
:100E0000626200780861608D401E6085208D401E02
:100E1000208532464946204600F05EFC0028D4D1A9
:100E2000208D0028CBD154F83D0B016841F40071AE
:100E30000160202004F81E09E57765770020C8E7E7
:100E400006E02068016841F4007101600120C0E7FC
:100E50000220BEE7020010000000FFFF00B500689E
:100E60000E4987B0884216D1C02000901220019010
:100E70000120029003200390042004906946084852
:100E8000FFF7E6FC0748016841F4001101600068C3
:100E900000F40010059007B000BD000000540040B1
:100EA0000004024040380240024881680278114440
:100EB00081607047700000200B4810B5016841F454
:100EC00000710160016841F480610160016841F4D2
:100ED00080710160032000F08BF8002000F006F81C
:100EE00000F024F8002010BD003C024070B50D4D0C
:100EF00004464FF47A712878B1FBF0F00A4909688A
:100F0000B1FBF0F000F001FB48B9102C07D2002231
:100F10002146501E00F04CF800206C6070BD01208E
:100F200070BD0000700000207C0000201F4808B544
:100F3000016841F480410160006800F48040009045
:100F40001A48001F016841F080510160006800F0FC
:100F500080500090032000F04BF8002211466FF003
:100F60000B0000F025F8002211466FF00A0000F097
:100F70001FF8002211466FF0090000F019F8002256
:100F80001146501F00F014F800221146101F00F007
:100F90000FF800221146901E00F00AF80022BDE86A
:100FA00008401146501E00F003B8000044380240CB
:100FB000F0B40E4B1B680C46C3F30223C3F10705C4
:100FC000042D00D90425191D072901D2002300E0B2
:100FD000DB1E012606FA05F1491E214099409E407C
:100FE000761E16403143F0BC00F03ABE0CED00E036
:100FF000064900F0070208684FF6FF03184040EA70
:101000000220034A10430860704700000CED00E026
:101010000000FA052DE9F0470E46050065D0DFF81F
:101020001481D8F80000F7B200F00F00B04207D2E8
:1010300088F80070D8F8000000F00F00B04254D1DA
:1010400028683D4C810712D5400703D5206840F43D
:10105000E05020602878000703D5206840F4604005
:1010600020602068A96820F0F000084320602878FC
:10107000C0072DD0304968680839012812D00228ED
:1010800013D0032811D00968890700292DDA2168B7
:1010900021F0030101432160FFF7C6FC814641F2C4
:1010A000883A0EE009688903EFE709688901ECE7EF
:1010B000FFF7BAFCA0EB0901514502D90320BDE8B6
:1010C000F0872068696800F00C00B0EB810FEFD169
:1010D000D8F80010404601F00F01B14207D907705F
:1010E000006800F00F00B04201D00120E7E7287847
:1010F000400705D52068E96820F4E05008432060E7
:101100002878000706D52068296920F4604040EA65
:10111000C100206000F02CF82168084AC1F30311D7
:10112000515CC840064908600020FFF7DFFE002040
:10113000C5E70000003C0240083802409E2B000832
:101140007C00002001480068704700007C000020FF
:101150000448054900680968044AC1F38221515CCA
:10116000C84070477C00002008380240AE2B0008C1
:10117000154810B5006810F00C02144813D014493B
:10118000042A0FD0082A0ED10F4C241F226823688E
:1011900002F03F025B0207D52068C0F38810A0FB75
:1011A000010106E0084610BD2168C1F38811A1FBCA
:1011B00000010023FFF716F82168C1F30141491C23
:1011C0004900B0FBF1F010BD083802400024F400E3
:1011D00040787D012DE9F84F050076D02878DFF8BA
:1011E000F8B2BE4CC00749D0DBF800105846C1F336
:1011F0008101012908D00068C0F3810002280AD1CA
:10120000201D0068400206D52068800336D5686836
:101210000028E2D032E06868B0F5803F10D0B0F529
:10122000A02F206810D020F480302060206820F4A7
:10123000802020606868A0B1FFF7F6FB06460CE04E
:10124000206840F48030F4E740F480202060F7E725
:10125000FFF7EAFB801B642873D820688003F7D56A
:101260000CE0FFF7E1FB064605E000BFFFF7DCFB03
:10127000801B6428F0D820688003F7D42878DFF832
:10128000608280074FF000093ED5DBF80010584619
:1012900011F00C0F09D00068C0F3810002280BD1B7
:1012A0008D48001F0068400206D42068800715D5CD
:1012B000E868012809D111E0E868B8B10120C8F850
:1012C0000000FFF7B1FB064605E002E1FFF7ACFBCB
:1012D000801B0228C0D820688007F7D520682969BC
:1012E00020F0F80040EAC10020600DE0C8F800904E
:1012F000FFF79AFB064604E0FFF796FB801B0228E7
:101300001FD820688007F7D42878000722D5724EAE
:10131000744869696C3671B101210160FFF784FB83
:10132000074604E0FFF780FBC01B022809D830689D
:101330008007F7D50EE0C0F80090FFF775FB074671
:1013400005E083E0FFF770FBC01B02287ED8306801
:101350008007F7D42878400768D5DFF87CA10027FC
:101360000AF1380ADAF80000C0000BD4DAF80010ED
:1013700041F08051CAF80010DAF80000012700F0AF
:1013800080500090584E3068C00510D4306840F44A
:1013900080703060FFF748FB009005E0FFF744FBEA
:1013A0000099401A022851D83068C005F6D54A4E37
:1013B000A868683601280FD00528306810D020F0C2
:1013C00001003060306820F004003060A868B8B1D7
:1013D000FFF72AFB00900FE0306840F00100F4E7CF
:1013E00040F004003060F7E7FFF71EFB0099411A58
:1013F00041F28830814264D830688007F4D50EE02D
:10140000FFF712FB009007E0FFF70EFB0099411A6F
:1014100041F28830814254D830688007F4D42FB12B
:10142000DAF8001021F08051CAF80010A869C0B3A2
:10143000DBF80010C1F3810102294AD00228484696
:1014400007D0C8F86000FFF7EFFA00E039E0054682
:101450003AE04746C8F86000FFF7E6FA064604E0BF
:10146000FFF7E2FA801B02282BD820688001F7D40E
:10147000D5E907010843A96A1C4A490802EB014162
:101480006A6A41EA8211084395F82C1040EA01612A
:101490001148001F016001203866FFF7C5FA0546B4
:1014A00005E014E0FFF7C0FA401B022809D82068C5
:1014B0008001F7D50BE000BFFFF7B6FA401B02280A
:1014C00002D90320BDE8F88F20688001F4D4002001
:1014D000F8E70120F6E70000083802400038024033
:1014E00000004742800E4742007000400000FFFFAE
:1014F0004FF0E0210428086903D020F004000861BF
:10150000704740F00400FAE7704710B5401EB0F194
:10151000807F01D3012010BD4FF0E02460610F21D6
:10152000601700F09DFB0020A061072020610020D3
:1015300010BD10B5FFF7E8FF10BDFEE701684A696E
:10154000D24352050CD46FF480624A6104210164D5
:10155000002140F8301F20224273017301207047A0
:10156000002070472DE9F84F0446C06A1E46924697
:101570000D4621680A6842F480620A60042807D098
:10158000012805D010F5803F02D0206B112804D12E
:101590002068016841F4807101604FF001185346E2
:1015A000002241462046009600F0BDF8B8BB2069F5
:1015B00008F10109B0F5804F12D00620216800EA39
:1015C000D51747F0F00008613346524608F107018D
:1015D000204600F0D9F838B1206C04282FD01EE046
:1015E000E8B240F001001FE02168E8B2086133462C
:1015F00052464946204600F0C7F80028ECD1206842
:10160000416981690091016841F48071016053462C
:10161000002241462046009600F085F810B10320D4
:10162000BDE8F88F47F0F100216808613346524663
:101630004946204600F0A8F80028CDD1F0E7012067
:10164000EEE70000F8B50446C06A1E460D46174690
:10165000042807D0012805D010F5803F02D0206B68
:10166000122804D12068016841F48071016013469A
:1016700000224FF001112046009600F054F8A0B966
:101680002069B0F5804F12D00620216800EAD510FD
:1016900040F0F000086133463A460E49204600F01B
:1016A00073F838B1206C042811D00320F8BD05F080
:1016B000FE0000E0E8B221680861064933463A4678
:1016C000891F204600F060F80028EBD1F8BD01200A
:1016D000F8BD00000800010070B516460D4604462E
:1016E0001AE02046FFF72AFF08B1012070BD681CF0
:1016F00012D025B1FFF798F9801BA8420CD954F8F5
:10170000400F40F0200044F8100900202060202104
:1017100061732073032070BD20684069C043400797
:10172000DFD4002070BD2DE9F0471E4690460D46DF
:101730000446C1F30747DDF8209012E0701C10D07A
:101740002EB1FFF771F9A0EB0900B04209D90020D2
:1017500044F8300F20216173A07320730320BDE88B
:10176000F0872068012F0AD0806925EA0000000474
:10177000000C06D000214145E0D00020EFE7406991
:10178000F3E70121F7E700002DE9F0479A4691467B
:101790000D46044600264FF02008C1F307472AE013
:1017A00020684069C043400512D42068016841F4B4
:1017B0000071016021686FF480604861042020643A
:1017C000266384F83D8084F83C600120BDE8F08702
:1017D000B9F1FF3F0FD0B9F1000F05D0FFF724F9A1
:1017E000A0EB0A01494506D944F8306F84F80D8012
:1017F00026730320EAE72068012F07D0D0F81800ED
:1018000025EA00000004000CE0D0C9E74069F7E7D2
:101810002DE9F041002590460E460446202721E0A0
:101820004069C043C0060CD421686FF010004861C5
:101830002564256384F83D7084F83C500120BDE8A0
:10184000F0812EB1FFF7F0F8A0EB0800B04209D903
:1018500054F8400F40F0200044F8040967702570E8
:101860000320ECE720684169C9434906D8D4002029
:10187000E5E770B516460D4604461AE02046FFF728
:101880005DFE08B1012070BD681C12D025B1FFF7C4
:10189000CBF8801BA8420CD954F8400F40F0200030
:1018A00044F8100900202060202161732073032078
:1018B00070BD20684069C0430006DFD4002070BDC1
:1018C0002DE9F8432C4C19266D20267060700A25EE
:1018D00002232246D02129480095FFF723FA1C2035
:1018E00020704FF0080884F8018002232246D0219E
:1018F00022480095FFF716FA1B2727701820607002
:1019000002232246D0211D480095FFF70BFA2670CE
:101910000920607002232246D02118480095FFF765
:1019200001FA1A2020700126667002232246D02177
:1019300012480095FFF7F6F9277003206070022324
:101940002246D0210D480095FFF7ECF91D2727709E
:1019500084F8018002232246D02108480095FFF731
:10196000E1F92770667002232246D02103480095D2
:10197000FFF7D8F9BDE8F883D800002084000020E4
:101980000B4810B5094901600A49416000214FF434
:1019900080428160C0E9031241618161C1610162DD
:1019A000FFF748F8002800D0FEE710BD00540040C3
:1019B00084000020A086010000B5A64AF5EEC01AFA
:1019C0002DED088B92ED023AD2ED033A92ED034AE7
:1019D00020EE433A03EEE03AD2ED043A03EEC13A88
:1019E000F6EE003A23EE235A92ED013A23EE003A46
:1019F00004EE013A92ED044A04EE603A92ED024A96
:101A000063EE234A92ED013A23EE203A04EE413A86
:101A100092ED044A04EE003A23EE234A92ED013A95
:101A200023EE011A92ED023A03EE201AD2ED030AD8
:101A300000EEC01A61EE235AF1EE10FA09D1B5EEAC
:101A4000C02AF1EE10FA04D1F5EEC02AF1EE10FA38
:101A50007ED021EEA10A02EE020A02EEA20A00F0F6
:101A600045FF21EE801A62EE000A62EE807AD2ED26
:101A7000011AB0EE000AD2ED022A21EE809AD2EDD0
:101A8000021A92ED023AD2ED033A61EE806AD2ED8B
:101A9000031A92ED04AA21EE807AD2ED041A61EEC7
:101AA000808AD2ED011AB1EE000A61EE809AD2ED81
:101AB000021A21EE802AD2ED031A21EE806AF2EE9C
:101AC000001A62EEA1AAD2ED032A22EEA18AD2ED7B
:101AD000011AD2ED012A61EEA21AD2ED022A62EEBB
:101AE000832A92ED033A63EE233A92ED043A23EE11
:101AF0000AAA29EEA33A22EE0ABA07EE013A08EE44
:101B0000C1BA09EEA23A61EE809AD2ED021A09EE4C
:101B1000A1BA06EEE03A09EE60BA7BEE421A4AEE4E
:101B2000A21A4AEEA31A42EE271A92ED032A29EED0
:101B3000822A09EE012A06EE0A2A08EEE02A32EE8F
:101B4000462A08EE222A08EE232A06EE272A00E07B
:101B500031E062EE802A92ED046A23EE800A62EEA2
:101B6000862A46EEC12A92ED041A40EE012A23EE9F
:101B7000030A01EEA10A47EE602A02EE020A02EE13
:101B8000A20A00F0B3FE61EE800A23EE001A62EEB4
:101B9000001A92ED002A22EE800A02EE415A92EDDE
:101BA000001A41EE604AD2ED000A00EEE14AD2EDA1
:101BB000000A40EEC05AD2ED010A9FED270A45EE19
:101BC000000AC2ED010AD2ED020A44EE800AC2ED1B
:101BD000020AD2ED030A44EE000AC2ED030AD2ED76
:101BE000040A45EE800AC2ED040A92ED010AD2ED24
:101BF000010A92ED021A20EE200AD2ED020A00EE4E
:101C0000810AD2ED030A92ED031A00EE810AD2EDA9
:101C1000040A92ED041A00EE810A00F067FED2ED8C
:101C2000010A60EE800AC2ED010AD2ED020A60EEFE
:101C3000800AC2ED020AD2ED030A60EE800AC2ED0C
:101C4000030AD2ED040A20EE800A82ED040ABDECFC
:101C5000088B00BD5C00002008CE443BFEE77047C7
:101C60000907090E002806DA00F00F0000F1E02055
:101C700080F8141D704700F1E02080F800147047D0
:101C80007047704710B5FFF70FF9BDE81040FFF738
:101C900050BC000010B5204892B00024016841F00B
:101CA00080510160006800F0805011901B4801686D
:101CB00021F4404141F4804101600068069400F441
:101CC00040401190022000900120039010200490C9
:101CD0006846FFF77FFA00B1FEE70F20CDE90C045C
:101CE0000E940F9400210CA81094FFF793F900B103
:101CF000FEE7FFF727FA4FF47A71B0FBF1F0FFF738
:101D000004FC0420FFF7F4FB00221146501EFFF7ED
:101D10004FF912B010BD0000403802400070004082
:101D20001048016841F4700101600F48016841F0FA
:101D3000010101600C4A00210832116002680B4B5E
:101D40001A400260031D0A4A1A60026822F48022C7
:101D5000026005480C30016002495806803908606D
:101D60007047000088ED00E000380240FFFFF6FEFB
:101D700010300024FEE703B401984100009850EAB7
:101D8000C12018BF04204A0D18BF40F0010040F2E6
:101D9000FF72B2EB515F08BF40F00200012808BF9C
:101DA000052002B07047000070B5C1482DED020B50
:101DB0002DED0E8B82B0119D25F000449FEDBEDB12
:101DC0009FEDBFEB84423EDBA4F140511098A1F19E
:101DD0007F6108430FD0BC48844202DC28D11098B0
:101DE00030B39DED100B02B0BDEC0E8B02B0BDE820
:101DF000704000F069BC9DED100B53EC1D2B51ECB5
:101E0000100BFEF7C7FA9DED100B41EC180B53ECCD
:101E10001E2B51EC100BFEF7BDFA53EC182BFEF7FE
:101E200012FA41EC100B02B0BDEC0E8B02B070BD8B
:101E3000012000F08DFC02B0BDEC0E8B02B0BDE8BD
:101E4000704000F055BCA1489FEDA18B844256DA4A
:101E50009DED100BB4F1795F0ADA51EC100BFFF72E
:101E60008AFF042808BF00F053FC9DED100BDAE751
:101E700053EC102B51EC100BFEF78CFA41EC190BC4
:101E800095480621B0EE490AF0EE690A784400F060
:101E90009FFB53EC192B51EC100BFEF77BFA41EC36
:101EA0001A0B8E48B0EE490AF0EE690A0421784414
:101EB00000F08EFB53EC192B51EC100BFEF76AFA75
:101EC00053EC182BFEF7BFF941EC100B51EC1A0B39
:101ED00053EC102BFEF7D0FACDE900019DED000B7D
:101EE00053EC102B9DED100B51EC100BFEF752FA3A
:101EF0009DED101B53EC112BFEF7A5F9D2E09DEDE3
:101F0000100B51EC100B00F0E5FC53EC182BFEF716
:101F10003EFA9FED730BCDE9000153EC102B9DEDC4
:101F2000000B51EC100BFEF735FA41EC190B6E4823
:101F30000621B0EE490AF0EE690A784400F048FB49
:101F400053EC192B51EC100BFEF724FA41EC1B0B50
:101F50006648B0EE490AF0EE690A0421784400F0C0
:101F600037FB53EC192B51EC100BFEF713FA53EC23
:101F7000182BFEF768F941EC1C0B51EC190B00F023
:101F8000D7FD41EC180B5A489FED5BABA04222DC19
:101F900053EC1C2B51EC1B0BFEF76EFACDE9000144
:101FA0009DED000B51EC180B53EC102BFEF7F2F9E2
:101FB00053EC182BFEF747F953EC1A2BFEF7EAF90E
:101FC00053EC1D2BFEF7E0F953EC1E2BFEF7DFF967
:101FD00041EC100B5FE08DED008B002000909DED3B
:101FE000000B51EC180B53EC102BFEF72CF99DED68
:101FF000000B41EC1E0B53EC102B51EC100BFEF7B9
:10200000C9F953EC192BFEF7C2F953EC1E2BFEF75E
:1020100033FA41EC190B53EC1C2B51EC1B0BFEF764
:102020002BFA41EC1B0B53EC1A2B51EC190BFEF75E
:10203000B1F953EC1D2BFEF7AAF941EC190B53EC47
:102040001A2B51EC180BFEF7A5F953EC1B2BFEF7DE
:10205000A1F953EC192BFEF797F99DED000B41EC1C
:10206000180B53EC1A2B51EC100BFEF793F99FED64
:10207000249B53EC192BFEF78AF941EC100B51EC21
:10208000180B53EC102BFEF77FF953EC192BFEF7CE
:102090007EF941EC100B002D3FF7C5AE51EC100B53
:1020A00081F0004141EC100BBDE600000000000093
:1020B0000000F03F00000000075C143326A6913CAE
:1020C000182D4454FB21F93F0000F07F0000E03F51
:1020D000000000000000F03F280D0000360D000059
:1020E000000000000000E03F7A0C0000880C0000B7
:1020F0003333EF3F0000000000000000000000400C
:10210000182D4454FB21E93F70B59B482DED020B7F
:102110002DED068B079D25F00044A04218DC974862
:10212000844202DC0AD1069840B19DED060BBDEC5D
:10213000068B02B0BDE8704000F0C6BA002DCCBFDF
:102140009FED8F0B9FED900BBDEC068B02B070BD29
:102150008F48A04215DD8F48A042D8BF4FF0FF3412
:1021600058DD9DED060B51EC100BFFF704FE042823
:1021700008BF00F0CDFA9DED060BBDEC068B02B05A
:1021800070BD9DED060B51EC100B00F0A3FBCDE9EB
:10219000060181489FED828BA0423CDD8248A0422F
:1021A0001FDD00249FED82AB9DED060B53EC1A2B37
:1021B00051EC100BFEF747F89DED060B41EC190BA7
:1021C00053EC1A2B51EC100BFEF7E4F853EC182BE0
:1021D000FEF7DAF853EC192BFEF74EF9CDE90601BC
:1021E00049E09DED060B012453EC182B51EC100B2C
:1021F000FEF729F89DED060B41EC190B53EC182B5B
:1022000051EC100BFEF7C0F853EC192BFEF734F924
:10221000CDE906012FE06848A0421FDD02249FEDB2
:10222000689B9DED060B53EC192B51EC100BFEF740
:10223000B1F853EC182BFEF706F89DED060B41ECB8
:10224000180B53EC192B51EC100BFEF79DF853ECC7
:10225000182BFEF711F9CDE906010CE09DED060BF8
:10226000032453EC102B9FED580B51EC100BFEF791
:1022700003F9CDE906019DED060B53EC102B51EC53
:10228000100BFEF787F841EC180B53EC182BFEF7F8
:1022900081F841EC190B4E480621B0EE490AF0EEE8
:1022A000690A784400F094F953EC182B51EC100BA8
:1022B000FEF770F841EC180B4648B0EE490AF0EE14
:1022C000690A0521784400F083F953EC192B51EC8D
:1022D000100BFEF75FF841EC100B51EC180B53ECB0
:1022E000102B002C0EDAFDF7AEFF9DED061B53EC14
:1022F000112BFEF74FF89DED061B53EC112BFEF74B
:1023000046F835E0FDF79FFF9DED061B53EC112BC2
:10231000FEF740F841EC100B2F48784400EBC40066
:1023200090ED001B51EC100B53EC112BFEF72CF829
:102330009DED061B53EC112BFEF726F841EC100B1C
:102340002648784400EBC40090ED001B51EC100BC4
:1023500053EC112BFEF71BF841EC100B002DA2BF24
:10236000BDEC068B02B070BD51EC100B81F000414A
:1023700041EC100B01E70000000010440000F07F6A
:10238000182D4454FB21F93F182D4454FB21F9BF6B
:102390000000DC3F0000203E0000F33F0000000092
:1023A000000000000000F03F0000E63F00000000D9
:1023B000000000000000004000800340000000001A
:1023C000000000000000F83F000000000000F0BF27
:1023D000CA090000800900000A090000C2080000C4
:1023E00070B56B4E2DED040B2DED028B82B0DDF838
:1023F0001CC0DDE905235C422CF000411C4341EA8E
:10240000D474049D22F00040B44205D86C422C43A1
:1024100040EAD474B4420BD99DED061B9DED040B2C
:1024200002B0BDEC028B04B0BDE8704000F056B9BC
:10243000ACF14054A4F17F641C430BD0022404EAA5
:10244000AC7444EAD27405439FED538B9FED542B3B
:1024500007D015E09DED040B51EC100B00F07EF958
:1024600042E0002C11BF012C9DED040B02B0BDEC2D
:10247000028B04BF04B070BD022C38D0032C3BD0BB
:102480000B439FED491B9FED4A0B0AD0B14218D177
:10249000B04209D121F0804120F0804007910590A1
:1024A0000FE0002A15DA10E0434B7B44002C08BFF4
:1024B00093ED000B0DD0012C10D0022C17D0032C63
:1024C0001AD0B0421DD1002A03DAB0EE410AF0EE74
:1024D000610A02B0BDEC028B04B070BD93ED000B3D
:1024E00051EC100B81F0004141EC100BF1E7B0EE24
:1024F000480AF0EE680AECE7B0EE420AF0EE620A33
:10250000E7E7401A00153C28C8BF8DED000B19DC29
:10251000BCF1000FBEBF10F13C0F9FED290B8DEDFC
:10252000000B0FDB9DED060B53EC102B9DED040B08
:1025300051EC100BFDF7A0FF00F0CCF900F00EF904
:10254000CDE90001002C08BF9DED000BC1D0012C8E
:1025500010D0022C9FED1C0B53EC102B9DED000BAB
:1025600051EC100B0DD0FDF70FFF53EC182BFDF7BE
:102570000BFFB9E7019880F0004001909DED000B42
:10258000A7E7FDF701FF53EC182BFDF700FFABE7C2
:102590000000F07F00000000182D4454FB2109408A
:1025A000182D4454FB2109C0182D4454FB21F9BFB8
:1025B000182D4454FB21F93FF207000000000000F1
:1025C0000000000000000000075C143326A6A13CB8
:1025D00070B504462DED028B4D1E00EBC500B0EE2C
:1025E000408AF0EE608A90ED000B35F0060017D0BF
:1025F00053EC182B51EC100BFDF7CCFE41EC100BFB
:102600006D1E04EBC50090ED001B51EC100B53EC5C
:10261000112BFDF718FE41EC100B35F00600E7D149
:10262000022D36D0042D1CD0062D1CBFBDEC028B14
:1026300070BD53EC182B51EC100BFDF7ABFE94ED75
:102640000A1B53EC112BFDF7FEFD53EC182BFDF785
:10265000A1FE94ED081B53EC112BFDF7F4FD41ECAA
:10266000100B53EC182B51EC100BFDF793FE94ED6F
:10267000061B53EC112BFDF7E6FD53EC182BFDF771
:1026800089FE94ED040B53EC102BFDF7DCFD41ECBF
:10269000100B53EC182B51EC100BFDF77BFE94ED57
:1026A000021B53EC112BFDF7CEFD53EC182BFDF75D
:1026B00071FE94ED001B53EC112BFDF7C4FDBDEC36
:1026C000028B41EC100B70BD10B553EC102B51EC8C
:1026D000100BFDF7B8FD41EC100B10BD10B553EC1D
:1026E000112B51EC100BFDF7AEFD41EC100B10BDA2
:1026F0009FED050B10B553EC102B51EC100BFDF7B3
:10270000BBFE41EC100B10BD0000000000000000FB
:102710009FED050B10B553EC102B51EC100BFDF792
:1027200039FE41EC100B10BD00000000000000104D
:1027300002E008C8121F08C1002AFAD1704770478A
:10274000002001E001C1121F002AFBD170470000E8
:1027500001490860704700008000002010B541EC7E
:10276000100BFFF7D1FC51EC100B10BD2DE9F0411F
:102770002DED048B88B0684600F01CF94D4CDDED62
:10278000001AC4ED0F1A9DED012A84ED102ADDED2B
:10279000022AC4ED112A9DED040A84ED120ADDED32
:1027A000050AC4ED130A9DED061A84ED141AFFF70D
:1027B00003F9414D414EB0EE008A95ED000AD5ED8A
:1027C000000A96ED001A60EE200A96ED000A40EE2F
:1027D000010AB7EE000A00EEC80A10EE100AFDF773
:1027E000CBFE374FD5ED000ADFF8D88097ED000A11
:1027F00041EC190B98ED001A20EE200AD6ED000AE4
:1028000000EE810A20EE080A10EE100AFDF7B4FE71
:1028100041EC100BB0EE491AF0EE691AFFF7E0FD3B
:1028200051EC100BFDF7BBFE606397ED000AD6ED8F
:10283000000A98ED001A20EE080A20EE200AD5EDD5
:10284000000A60EE880A00EEC10A10EE100AFDF7D9
:1028500093FE41EC100BFFF7A7FA51EC100BFDF7BC
:102860009EFE08EE100ADFED188A84ED0E8A94EDC4
:102870000D0A20EE280A10EE100AFDF77DFE9FEDEE
:10288000139B53EC192BFDF7F7FDFDF788FE28EE9F
:10289000280A206210EE100AFDF76EFE53EC192B89
:1028A000FDF7EAFDFDF77BFE606208B0BDEC048B2E
:1028B000BDE8F081080000206400002068000020CE
:1028C000600000206C00002000003443EA2E4454D5
:1028D000FB21094082B0CDE9000121F000400190C8
:1028E0009DED000B02B051EC100B704710EE100A7A
:1028F000F6EE000A074960EE200AA1EB600000EE48
:10290000100A20EE801AF7EE080A41EE400A20EE87
:10291000800A7047DF59375F86B09FED210BFFF7C4
:1029200043FA51EC100BFDF73AFE1F4C6060FEF7C6
:10293000C3FAFFF7AFF91D480025016841F04001D7
:102940000160016801F040010591016841F0020158
:1029500001600068164F00F002004FF4C046059079
:102960002A4631463846FEF759F801200096CDE94F
:102970000105694638460395FDF76AFFFFF700F841
:10298000FEF79EFFA4F80050FEF74EF82188401A8B
:102990000328F9D9FEF748F82080FFF7E7FEF3E7B0
:1029A000CDCCCCCCCCCCEC3F000000203038024069
:1029B000001802402DE9F04F554D06462DED028BD3
:1029C00081B03B2028700A2401232A46D021514897
:1029D0000094FEF7A7F9002068700E236A1CD1212D
:1029E0004C480094FEF7AAF835F8010F4A4C40BA5B
:1029F000404201B22180688840BA404200B2608003
:102A00000090A88840BA00B2A0808346E88840BA07
:102A1000404200B2A0818246288940BA404200B2BA
:102A2000E0808146688940BA404200B220818046F9
:102A3000A88940BA07B267810846FDF78CFD9FED73
:102A4000378B53EC182BFDF7A5FCFDF7A8FD0546C9
:102A500020610098FDF77FFD53EC182BFDF79AFCE1
:102A6000FDF79DFD60615846FDF775FD53EC182B91
:102A7000FDF790FCFDF793FD4FF4AA71A0619AFB5E
:102A8000F1F0FDF768FD9FED271B53EC112BFDF7CF
:102A9000DAFBFDF784FD00EE109AE0613220F8EEDB
:102AA000C00A9FED220A80EE801A00EE908AF8EEAE
:102AB000E00A84ED0A1A80EE801A00EE907AF8EEB1
:102AC000E00A84ED0B1A80EE801A84ED0C1A356052
:102AD00094ED050A86ED010A94ED060A86ED020AD8
:102AE00094ED070A86ED030A94ED0A0A86ED040ABE
:102AF00094ED0B0A86ED050A94ED0C0A86ED060AA4
:102B000001B0BDEC028BBDE8F04FFDF78FBE0000B9
:102B1000D8000020840000200800002000000000F1
:102B20000000203FA4703D0AD7434240A6E96A4412
:102B300000B52DED048B83B041EC190BFDF710FEB1
:102B400041EC180B18EE100A18EE901A8DED008B60
:102B5000002818BF0120084320F00040C0F17F602A
:102B600000F1E040C00F14D019EE101A19EE900ACF
:102B70008DED009B002918BF0121084320F0004083
:102B8000C0F17F6000F1E040C00F04BF0120FFF7FB
:102B9000DFFD51EC180B03B0BDEC048B00BD000051
:102BA00000000000000001020304060708090000FD
:102BB0000000010203040000555555555555C53F09
:102BC0007D6FEB0312D6D4BF5544880E55C1C93F63
:102BD0003B8F68B52882A4BF88B20175E0EF493FFA
:102BE00009F7FD0DE13D023F4B2D8A1C273A03C03A
:102BF000C88A599CE52A004059018D1B6C06E6BF26
:102C000082922EB1C5B8B33F4FBB610567ACDD3FC3
:102C1000182D4454FB21E93F9BF681D20B73EF3F03
:102C2000182D4454FB21F93FE2652F227F2B7A3C7B
:102C3000075C143326A6813CBDCBF07A8807703C34
:102C4000075C143326A6913CC4EB98999999C9BFA7
:102C5000711623FEC671BCBF6D9A74AFF2B0B3BFDC
:102C60009AFDDE522DDEADBF2F6C6A2C44B4A2BF9C
:102C70000D5555555555D53FFF8300922449C23F08
:102C80006E204CC5CD45B73F513DD0A0660DB13F3C
:102C9000EB0D76244B7BA93F11DA22E33AAD903F4E
:102CA0000000000000000000C82C00080000002008
:102CB00084000000302700084C2D0008840000200C
:102CC000640400004027000800000000000000002D
:102CD00000000000000000000000000000000000F4
:102CE00000000000000000000000000000000000E4
:102CF00000000000000000000000000000000000D4
:102D000000000000000000000000000000000000C3
:102D100000000000000000000000000000000000B3
:102D200000000000CDCC4C3E0000803F00000000C1
:102D30000000000000000000010000001000000082
:0C2D4000000000000024F400000000006F
:04000005080001AD41
:00000001FF
